{
  "_format": "hh-sol-artifact-1",
  "contractName": "MassEvent",
  "sourceName": "contracts/MassEvent.sol",
  "abi": [
    {
      "inputs": [],
      "stateMutability": "nonpayable",
      "type": "constructor"
    },
    {
      "anonymous": false,
      "inputs": [
        {
          "indexed": true,
          "internalType": "address",
          "name": "account",
          "type": "address"
        },
        {
          "indexed": true,
          "internalType": "address",
          "name": "operator",
          "type": "address"
        },
        {
          "indexed": false,
          "internalType": "bool",
          "name": "approved",
          "type": "bool"
        }
      ],
      "name": "ApprovalForAll",
      "type": "event"
    },
    {
      "anonymous": false,
      "inputs": [
        {
          "indexed": true,
          "internalType": "address",
          "name": "previousOwner",
          "type": "address"
        },
        {
          "indexed": true,
          "internalType": "address",
          "name": "newOwner",
          "type": "address"
        }
      ],
      "name": "OwnershipTransferred",
      "type": "event"
    },
    {
      "anonymous": false,
      "inputs": [
        {
          "indexed": true,
          "internalType": "address",
          "name": "operator",
          "type": "address"
        },
        {
          "indexed": true,
          "internalType": "address",
          "name": "from",
          "type": "address"
        },
        {
          "indexed": true,
          "internalType": "address",
          "name": "to",
          "type": "address"
        },
        {
          "indexed": false,
          "internalType": "uint256[]",
          "name": "ids",
          "type": "uint256[]"
        },
        {
          "indexed": false,
          "internalType": "uint256[]",
          "name": "values",
          "type": "uint256[]"
        }
      ],
      "name": "TransferBatch",
      "type": "event"
    },
    {
      "anonymous": false,
      "inputs": [
        {
          "indexed": true,
          "internalType": "address",
          "name": "operator",
          "type": "address"
        },
        {
          "indexed": true,
          "internalType": "address",
          "name": "from",
          "type": "address"
        },
        {
          "indexed": true,
          "internalType": "address",
          "name": "to",
          "type": "address"
        },
        {
          "indexed": false,
          "internalType": "uint256",
          "name": "id",
          "type": "uint256"
        },
        {
          "indexed": false,
          "internalType": "uint256",
          "name": "value",
          "type": "uint256"
        }
      ],
      "name": "TransferSingle",
      "type": "event"
    },
    {
      "anonymous": false,
      "inputs": [
        {
          "indexed": false,
          "internalType": "string",
          "name": "value",
          "type": "string"
        },
        {
          "indexed": true,
          "internalType": "uint256",
          "name": "id",
          "type": "uint256"
        }
      ],
      "name": "URI",
      "type": "event"
    },
    {
      "inputs": [
        {
          "internalType": "string",
          "name": "updatedURI",
          "type": "string"
        },
        {
          "internalType": "uint256",
          "name": "numTickets",
          "type": "uint256"
        },
        {
          "internalType": "uint256",
          "name": "price",
          "type": "uint256"
        }
      ],
      "name": "addEvent",
      "outputs": [
        {
          "internalType": "uint256",
          "name": "",
          "type": "uint256"
        }
      ],
      "stateMutability": "payable",
      "type": "function"
    },
    {
      "inputs": [
        {
          "internalType": "address",
          "name": "account",
          "type": "address"
        },
        {
          "internalType": "uint256",
          "name": "id",
          "type": "uint256"
        }
      ],
      "name": "balanceOf",
      "outputs": [
        {
          "internalType": "uint256",
          "name": "",
          "type": "uint256"
        }
      ],
      "stateMutability": "view",
      "type": "function"
    },
    {
      "inputs": [
        {
          "internalType": "address[]",
          "name": "accounts",
          "type": "address[]"
        },
        {
          "internalType": "uint256[]",
          "name": "ids",
          "type": "uint256[]"
        }
      ],
      "name": "balanceOfBatch",
      "outputs": [
        {
          "internalType": "uint256[]",
          "name": "",
          "type": "uint256[]"
        }
      ],
      "stateMutability": "view",
      "type": "function"
    },
    {
      "inputs": [],
      "name": "fetchEvents",
      "outputs": [
        {
          "components": [
            {
              "internalType": "uint256",
              "name": "eventId",
              "type": "uint256"
            },
            {
              "internalType": "uint256",
              "name": "price",
              "type": "uint256"
            },
            {
              "internalType": "uint256",
              "name": "ticketsIDStart",
              "type": "uint256"
            },
            {
              "internalType": "uint256",
              "name": "ticketsCount",
              "type": "uint256"
            }
          ],
          "internalType": "struct MassEvent.EventItem[]",
          "name": "",
          "type": "tuple[]"
        }
      ],
      "stateMutability": "view",
      "type": "function"
    },
    {
      "inputs": [
        {
          "internalType": "uint256",
          "name": "eventId",
          "type": "uint256"
        }
      ],
      "name": "getEventTickets",
      "outputs": [
        {
          "internalType": "uint256",
          "name": "",
          "type": "uint256"
        }
      ],
      "stateMutability": "view",
      "type": "function"
    },
    {
      "inputs": [],
      "name": "getEvents",
      "outputs": [
        {
          "internalType": "uint256",
          "name": "",
          "type": "uint256"
        }
      ],
      "stateMutability": "view",
      "type": "function"
    },
    {
      "inputs": [],
      "name": "getListingPrice",
      "outputs": [
        {
          "internalType": "uint256",
          "name": "",
          "type": "uint256"
        }
      ],
      "stateMutability": "view",
      "type": "function"
    },
    {
      "inputs": [],
      "name": "getTotalTickets",
      "outputs": [
        {
          "internalType": "uint256",
          "name": "",
          "type": "uint256"
        }
      ],
      "stateMutability": "view",
      "type": "function"
    },
    {
      "inputs": [
        {
          "internalType": "address",
          "name": "account",
          "type": "address"
        },
        {
          "internalType": "address",
          "name": "operator",
          "type": "address"
        }
      ],
      "name": "isApprovedForAll",
      "outputs": [
        {
          "internalType": "bool",
          "name": "",
          "type": "bool"
        }
      ],
      "stateMutability": "view",
      "type": "function"
    },
    {
      "inputs": [],
      "name": "owner",
      "outputs": [
        {
          "internalType": "address",
          "name": "",
          "type": "address"
        }
      ],
      "stateMutability": "view",
      "type": "function"
    },
    {
      "inputs": [],
      "name": "renounceOwnership",
      "outputs": [],
      "stateMutability": "nonpayable",
      "type": "function"
    },
    {
      "inputs": [
        {
          "internalType": "address",
          "name": "from",
          "type": "address"
        },
        {
          "internalType": "address",
          "name": "to",
          "type": "address"
        },
        {
          "internalType": "uint256[]",
          "name": "ids",
          "type": "uint256[]"
        },
        {
          "internalType": "uint256[]",
          "name": "amounts",
          "type": "uint256[]"
        },
        {
          "internalType": "bytes",
          "name": "data",
          "type": "bytes"
        }
      ],
      "name": "safeBatchTransferFrom",
      "outputs": [],
      "stateMutability": "nonpayable",
      "type": "function"
    },
    {
      "inputs": [
        {
          "internalType": "address",
          "name": "from",
          "type": "address"
        },
        {
          "internalType": "address",
          "name": "to",
          "type": "address"
        },
        {
          "internalType": "uint256",
          "name": "id",
          "type": "uint256"
        },
        {
          "internalType": "uint256",
          "name": "amount",
          "type": "uint256"
        },
        {
          "internalType": "bytes",
          "name": "data",
          "type": "bytes"
        }
      ],
      "name": "safeTransferFrom",
      "outputs": [],
      "stateMutability": "nonpayable",
      "type": "function"
    },
    {
      "inputs": [
        {
          "internalType": "address",
          "name": "operator",
          "type": "address"
        },
        {
          "internalType": "bool",
          "name": "approved",
          "type": "bool"
        }
      ],
      "name": "setApprovalForAll",
      "outputs": [],
      "stateMutability": "nonpayable",
      "type": "function"
    },
    {
      "inputs": [
        {
          "internalType": "bytes4",
          "name": "interfaceId",
          "type": "bytes4"
        }
      ],
      "name": "supportsInterface",
      "outputs": [
        {
          "internalType": "bool",
          "name": "",
          "type": "bool"
        }
      ],
      "stateMutability": "view",
      "type": "function"
    },
    {
      "inputs": [
        {
          "internalType": "address",
          "name": "newOwner",
          "type": "address"
        }
      ],
      "name": "transferOwnership",
      "outputs": [],
      "stateMutability": "nonpayable",
      "type": "function"
    },
    {
      "inputs": [
        {
          "internalType": "uint256",
          "name": "",
          "type": "uint256"
        }
      ],
      "name": "uri",
      "outputs": [
        {
          "internalType": "string",
          "name": "",
          "type": "string"
        }
      ],
      "stateMutability": "view",
      "type": "function"
    }
  ],
  "bytecode": "0x608060405260006007556658d15e176280006008553480156200002157600080fd5b506040805180820190915260018152600160fd1b6020820152620000458162000057565b50620000513362000070565b620001a5565b80516200006c906002906020840190620000c2565b5050565b600380546001600160a01b038381166001600160a01b0319831681179093556040519116919082907f8be0079c531659141344cd1fd0a4f28419497f9722a3daafe3b4186f6b6457e090600090a35050565b828054620000d09062000168565b90600052602060002090601f016020900481019282620000f457600085556200013f565b82601f106200010f57805160ff19168380011785556200013f565b828001600101855582156200013f579182015b828111156200013f57825182559160200191906001019062000122565b506200014d92915062000151565b5090565b5b808211156200014d576000815560010162000152565b600181811c908216806200017d57607f821691505b602082108114156200019f57634e487b7160e01b600052602260045260246000fd5b50919050565b611a7680620001b56000396000f3fe6080604052600436106100fd5760003560e01c8063715018a611610095578063ca261ce111610064578063ca261ce11461029f578063e42643a0146102cc578063e985e9c5146102df578063f242432a14610328578063f2fde38b1461034857600080fd5b8063715018a6146102205780638da5cb5b14610235578063a22cb4651461025d578063bcba43471461027d57600080fd5b806312e85585116100d157806312e85585146101a75780632eb2c2d6146101bc578063404aa8f9146101de5780634e1273f4146101f357600080fd5b8062fdd58e1461010257806301ffc9a71461013557806306e8337f146101655780630e89341c1461017a575b600080fd5b34801561010e57600080fd5b5061012261011d366004611141565b610368565b6040519081526020015b60405180910390f35b34801561014157600080fd5b50610155610150366004611181565b6103fe565b604051901515815260200161012c565b34801561017157600080fd5b50600754610122565b34801561018657600080fd5b5061019a6101953660046111a5565b610450565b60405161012c919061120b565b3480156101b357600080fd5b50600854610122565b3480156101c857600080fd5b506101dc6101d7366004611374565b6104e4565b005b3480156101ea57600080fd5b50610122610530565b3480156101ff57600080fd5b5061021361020e36600461141e565b610540565b60405161012c9190611524565b34801561022c57600080fd5b506101dc61066a565b34801561024157600080fd5b506003546040516001600160a01b03909116815260200161012c565b34801561026957600080fd5b506101dc610278366004611537565b61067e565b34801561028957600080fd5b5061029261068d565b60405161012c9190611573565b3480156102ab57600080fd5b506101226102ba3660046111a5565b60009081526004602052604090205490565b6101226102da3660046115d7565b6107a6565b3480156102eb57600080fd5b506101556102fa366004611639565b6001600160a01b03918216600090815260016020908152604080832093909416825291909152205460ff1690565b34801561033457600080fd5b506101dc61034336600461166c565b61089e565b34801561035457600080fd5b506101dc6103633660046116d1565b6108e3565b60006001600160a01b0383166103d85760405162461bcd60e51b815260206004820152602a60248201527f455243313135353a2061646472657373207a65726f206973206e6f742061207660448201526930b634b21037bbb732b960b11b60648201526084015b60405180910390fd5b506000908152602081815260408083206001600160a01b03949094168352929052205490565b60006001600160e01b03198216636cdb3d1360e11b148061042f57506001600160e01b031982166303a24d0760e21b145b8061044a57506301ffc9a760e01b6001600160e01b03198316145b92915050565b60606002805461045f906116ec565b80601f016020809104026020016040519081016040528092919081815260200182805461048b906116ec565b80156104d85780601f106104ad576101008083540402835291602001916104d8565b820191906000526020600020905b8154815290600101906020018083116104bb57829003601f168201915b50505050509050919050565b6001600160a01b038516331480610500575061050085336102fa565b61051c5760405162461bcd60e51b81526004016103cf90611727565b610529858585858561095c565b5050505050565b600061053b60095490565b905090565b606081518351146105a55760405162461bcd60e51b815260206004820152602960248201527f455243313135353a206163636f756e747320616e6420696473206c656e677468604482015268040dad2e6dac2e8c6d60bb1b60648201526084016103cf565b6000835167ffffffffffffffff8111156105c1576105c161121e565b6040519080825280602002602001820160405280156105ea578160200160208202803683370190505b50905060005b84518110156106625761063585828151811061060e5761060e611776565b602002602001015185838151811061062857610628611776565b6020026020010151610368565b82828151811061064757610647611776565b602090810291909101015261065b816117a2565b90506105f0565b509392505050565b610672610b39565b61067c6000610b93565b565b610689338383610be5565b5050565b6060600061069a60095490565b90506000808267ffffffffffffffff8111156106b8576106b861121e565b60405190808252806020026020018201604052801561071457816020015b6107016040518060800160405280600081526020016000815260200160008152602001600081525090565b8152602001906001900390816106d65790505b50905060005b8381101561066257600a600082815260200190815260200160002060405180608001604052908160008201548152602001600182015481526020016002820154815260200160038201548152505082848151811061077a5761077a611776565b60200260200101819052508280610790906117a2565b935050808061079e906117a2565b91505061071a565b60008082116107b457600080fd5b60405180608001604052806107c860095490565b8152602001838152602001600754815260200184815250600a60006107ec60095490565b815260200190815260200160002060008201518160000155602082015181600101556040820151816002015560608201518160030155905050826007600082825461083791906117bd565b909155508290506006600061084b60095490565b815260200190815260200160002081905550826004600061086b60095490565b815260208101919091526040016000205561088584610cc6565b610893600980546001019055565b600954949350505050565b6001600160a01b0385163314806108ba57506108ba85336102fa565b6108d65760405162461bcd60e51b81526004016103cf90611727565b6105298585858585610cd9565b6108eb610b39565b6001600160a01b0381166109505760405162461bcd60e51b815260206004820152602660248201527f4f776e61626c653a206e6577206f776e657220697320746865207a65726f206160448201526564647265737360d01b60648201526084016103cf565b61095981610b93565b50565b81518351146109be5760405162461bcd60e51b815260206004820152602860248201527f455243313135353a2069647320616e6420616d6f756e7473206c656e677468206044820152670dad2e6dac2e8c6d60c31b60648201526084016103cf565b6001600160a01b0384166109e45760405162461bcd60e51b81526004016103cf906117d5565b3360005b8451811015610acb576000858281518110610a0557610a05611776565b602002602001015190506000858381518110610a2357610a23611776565b602090810291909101810151600084815280835260408082206001600160a01b038e168352909352919091205490915081811015610a735760405162461bcd60e51b81526004016103cf9061181a565b6000838152602081815260408083206001600160a01b038e8116855292528083208585039055908b16825281208054849290610ab09084906117bd565b9250508190555050505080610ac4906117a2565b90506109e8565b50846001600160a01b0316866001600160a01b0316826001600160a01b03167f4a39dc06d4c0dbc64b70af90fd698a233a518aa5d07e595d983b8c0526c8f7fb8787604051610b1b929190611864565b60405180910390a4610b31818787878787610e03565b505050505050565b6003546001600160a01b0316331461067c5760405162461bcd60e51b815260206004820181905260248201527f4f776e61626c653a2063616c6c6572206973206e6f7420746865206f776e657260448201526064016103cf565b600380546001600160a01b038381166001600160a01b0319831681179093556040519116919082907f8be0079c531659141344cd1fd0a4f28419497f9722a3daafe3b4186f6b6457e090600090a35050565b816001600160a01b0316836001600160a01b03161415610c595760405162461bcd60e51b815260206004820152602960248201527f455243313135353a2073657474696e6720617070726f76616c20737461747573604482015268103337b91039b2b63360b91b60648201526084016103cf565b6001600160a01b03838116600081815260016020908152604080832094871680845294825291829020805460ff191686151590811790915591519182527f17307eab39ab6107e8899845ad3d59bd9653f200f220920489ca2b5937696c31910160405180910390a3505050565b805161068990600290602084019061108c565b6001600160a01b038416610cff5760405162461bcd60e51b81526004016103cf906117d5565b336000610d0b85610f77565b90506000610d1885610f77565b90506000868152602081815260408083206001600160a01b038c16845290915290205485811015610d5b5760405162461bcd60e51b81526004016103cf9061181a565b6000878152602081815260408083206001600160a01b038d8116855292528083208985039055908a16825281208054889290610d989084906117bd565b909155505060408051888152602081018890526001600160a01b03808b16928c821692918816917fc3d58168c5ae7397731d063d5bbf3d657854427343f4c083240f7aacaa2d0f62910160405180910390a4610df8848a8a8a8a8a610fc2565b505050505050505050565b6001600160a01b0384163b15610b315760405163bc197c8160e01b81526001600160a01b0385169063bc197c8190610e479089908990889088908890600401611892565b602060405180830381600087803b158015610e6157600080fd5b505af1925050508015610e91575060408051601f3d908101601f19168201909252610e8e918101906118f0565b60015b610f3e57610e9d61190d565b806308c379a01415610ed75750610eb2611929565b80610ebd5750610ed9565b8060405162461bcd60e51b81526004016103cf919061120b565b505b60405162461bcd60e51b815260206004820152603460248201527f455243313135353a207472616e7366657220746f206e6f6e20455243313135356044820152732932b1b2b4bb32b91034b6b83632b6b2b73a32b960611b60648201526084016103cf565b6001600160e01b0319811663bc197c8160e01b14610f6e5760405162461bcd60e51b81526004016103cf906119b3565b50505050505050565b60408051600180825281830190925260609160009190602080830190803683370190505090508281600081518110610fb157610fb1611776565b602090810291909101015292915050565b6001600160a01b0384163b15610b315760405163f23a6e6160e01b81526001600160a01b0385169063f23a6e619061100690899089908890889088906004016119fb565b602060405180830381600087803b15801561102057600080fd5b505af1925050508015611050575060408051601f3d908101601f1916820190925261104d918101906118f0565b60015b61105c57610e9d61190d565b6001600160e01b0319811663f23a6e6160e01b14610f6e5760405162461bcd60e51b81526004016103cf906119b3565b828054611098906116ec565b90600052602060002090601f0160209004810192826110ba5760008555611100565b82601f106110d357805160ff1916838001178555611100565b82800160010185558215611100579182015b828111156111005782518255916020019190600101906110e5565b5061110c929150611110565b5090565b5b8082111561110c5760008155600101611111565b80356001600160a01b038116811461113c57600080fd5b919050565b6000806040838503121561115457600080fd5b61115d83611125565b946020939093013593505050565b6001600160e01b03198116811461095957600080fd5b60006020828403121561119357600080fd5b813561119e8161116b565b9392505050565b6000602082840312156111b757600080fd5b5035919050565b6000815180845260005b818110156111e4576020818501810151868301820152016111c8565b818111156111f6576000602083870101525b50601f01601f19169290920160200192915050565b60208152600061119e60208301846111be565b634e487b7160e01b600052604160045260246000fd5b601f8201601f1916810167ffffffffffffffff8111828210171561125a5761125a61121e565b6040525050565b600067ffffffffffffffff82111561127b5761127b61121e565b5060051b60200190565b600082601f83011261129657600080fd5b813560206112a382611261565b6040516112b08282611234565b83815260059390931b85018201928281019150868411156112d057600080fd5b8286015b848110156112eb57803583529183019183016112d4565b509695505050505050565b600067ffffffffffffffff8311156113105761131061121e565b604051611327601f8501601f191660200182611234565b80915083815284848401111561133c57600080fd5b83836020830137600060208583010152509392505050565b600082601f83011261136557600080fd5b61119e838335602085016112f6565b600080600080600060a0868803121561138c57600080fd5b61139586611125565b94506113a360208701611125565b9350604086013567ffffffffffffffff808211156113c057600080fd5b6113cc89838a01611285565b945060608801359150808211156113e257600080fd5b6113ee89838a01611285565b9350608088013591508082111561140457600080fd5b5061141188828901611354565b9150509295509295909350565b6000806040838503121561143157600080fd5b823567ffffffffffffffff8082111561144957600080fd5b818501915085601f83011261145d57600080fd5b8135602061146a82611261565b6040516114778282611234565b83815260059390931b850182019282810191508984111561149757600080fd5b948201945b838610156114bc576114ad86611125565b8252948201949082019061149c565b965050860135925050808211156114d257600080fd5b506114df85828601611285565b9150509250929050565b600081518084526020808501945080840160005b83811015611519578151875295820195908201906001016114fd565b509495945050505050565b60208152600061119e60208301846114e9565b6000806040838503121561154a57600080fd5b61155383611125565b91506020830135801515811461156857600080fd5b809150509250929050565b602080825282518282018190526000919060409081850190868401855b828110156115ca57815180518552868101518786015285810151868601526060908101519085015260809093019290850190600101611590565b5091979650505050505050565b6000806000606084860312156115ec57600080fd5b833567ffffffffffffffff81111561160357600080fd5b8401601f8101861361161457600080fd5b611623868235602084016112f6565b9660208601359650604090950135949350505050565b6000806040838503121561164c57600080fd5b61165583611125565b915061166360208401611125565b90509250929050565b600080600080600060a0868803121561168457600080fd5b61168d86611125565b945061169b60208701611125565b93506040860135925060608601359150608086013567ffffffffffffffff8111156116c557600080fd5b61141188828901611354565b6000602082840312156116e357600080fd5b61119e82611125565b600181811c9082168061170057607f821691505b6020821081141561172157634e487b7160e01b600052602260045260246000fd5b50919050565b6020808252602f908201527f455243313135353a2063616c6c6572206973206e6f7420746f6b656e206f776e60408201526e195c881b9bdc88185c1c1c9bdd9959608a1b606082015260800190565b634e487b7160e01b600052603260045260246000fd5b634e487b7160e01b600052601160045260246000fd5b60006000198214156117b6576117b661178c565b5060010190565b600082198211156117d0576117d061178c565b500190565b60208082526025908201527f455243313135353a207472616e7366657220746f20746865207a65726f206164604082015264647265737360d81b606082015260800190565b6020808252602a908201527f455243313135353a20696e73756666696369656e742062616c616e636520666f60408201526939103a3930b739b332b960b11b606082015260800190565b60408152600061187760408301856114e9565b828103602084015261188981856114e9565b95945050505050565b6001600160a01b0386811682528516602082015260a0604082018190526000906118be908301866114e9565b82810360608401526118d081866114e9565b905082810360808401526118e481856111be565b98975050505050505050565b60006020828403121561190257600080fd5b815161119e8161116b565b600060033d11156119265760046000803e5060005160e01c5b90565b600060443d10156119375790565b6040516003193d81016004833e81513d67ffffffffffffffff816024840111818411171561196757505050505090565b828501915081518181111561197f5750505050505090565b843d87010160208285010111156119995750505050505090565b6119a860208286010187611234565b509095945050505050565b60208082526028908201527f455243313135353a204552433131353552656365697665722072656a656374656040820152676420746f6b656e7360c01b606082015260800190565b6001600160a01b03868116825285166020820152604081018490526060810183905260a060808201819052600090611a35908301846111be565b97965050505050505056fea2646970667358221220554e14ea44afdd2f4d7a759421e52d63a0e3ebd783faacfb77720d85c98a07cf64736f6c63430008090033",
  "linkReferences": {},
  "deployedLinkReferences": {}
}