{
  "_format": "hh-sol-artifact-1",
  "contractName": "MassEvent",
  "sourceName": "contracts/MassEvent.sol",
  "abi": [
    {
      "inputs": [],
      "stateMutability": "nonpayable",
      "type": "constructor"
    },
    {
      "anonymous": false,
      "inputs": [
        {
          "indexed": true,
          "internalType": "address",
          "name": "account",
          "type": "address"
        },
        {
          "indexed": true,
          "internalType": "address",
          "name": "operator",
          "type": "address"
        },
        {
          "indexed": false,
          "internalType": "bool",
          "name": "approved",
          "type": "bool"
        }
      ],
      "name": "ApprovalForAll",
      "type": "event"
    },
    {
      "anonymous": false,
      "inputs": [
        {
          "indexed": true,
          "internalType": "address",
          "name": "previousOwner",
          "type": "address"
        },
        {
          "indexed": true,
          "internalType": "address",
          "name": "newOwner",
          "type": "address"
        }
      ],
      "name": "OwnershipTransferred",
      "type": "event"
    },
    {
      "anonymous": false,
      "inputs": [
        {
          "indexed": true,
          "internalType": "address",
          "name": "operator",
          "type": "address"
        },
        {
          "indexed": true,
          "internalType": "address",
          "name": "from",
          "type": "address"
        },
        {
          "indexed": true,
          "internalType": "address",
          "name": "to",
          "type": "address"
        },
        {
          "indexed": false,
          "internalType": "uint256[]",
          "name": "ids",
          "type": "uint256[]"
        },
        {
          "indexed": false,
          "internalType": "uint256[]",
          "name": "values",
          "type": "uint256[]"
        }
      ],
      "name": "TransferBatch",
      "type": "event"
    },
    {
      "anonymous": false,
      "inputs": [
        {
          "indexed": true,
          "internalType": "address",
          "name": "operator",
          "type": "address"
        },
        {
          "indexed": true,
          "internalType": "address",
          "name": "from",
          "type": "address"
        },
        {
          "indexed": true,
          "internalType": "address",
          "name": "to",
          "type": "address"
        },
        {
          "indexed": false,
          "internalType": "uint256",
          "name": "id",
          "type": "uint256"
        },
        {
          "indexed": false,
          "internalType": "uint256",
          "name": "value",
          "type": "uint256"
        }
      ],
      "name": "TransferSingle",
      "type": "event"
    },
    {
      "anonymous": false,
      "inputs": [
        {
          "indexed": false,
          "internalType": "string",
          "name": "value",
          "type": "string"
        },
        {
          "indexed": true,
          "internalType": "uint256",
          "name": "id",
          "type": "uint256"
        }
      ],
      "name": "URI",
      "type": "event"
    },
    {
      "inputs": [
        {
          "internalType": "string",
          "name": "updatedURI",
          "type": "string"
        },
        {
          "internalType": "uint256",
          "name": "numTickets",
          "type": "uint256"
        },
        {
          "internalType": "uint256",
          "name": "price",
          "type": "uint256"
        }
      ],
      "name": "addEvent",
      "outputs": [
        {
          "internalType": "uint256",
          "name": "",
          "type": "uint256"
        }
      ],
      "stateMutability": "payable",
      "type": "function"
    },
    {
      "inputs": [
        {
          "internalType": "address",
          "name": "account",
          "type": "address"
        },
        {
          "internalType": "uint256",
          "name": "id",
          "type": "uint256"
        }
      ],
      "name": "balanceOf",
      "outputs": [
        {
          "internalType": "uint256",
          "name": "",
          "type": "uint256"
        }
      ],
      "stateMutability": "view",
      "type": "function"
    },
    {
      "inputs": [
        {
          "internalType": "address[]",
          "name": "accounts",
          "type": "address[]"
        },
        {
          "internalType": "uint256[]",
          "name": "ids",
          "type": "uint256[]"
        }
      ],
      "name": "balanceOfBatch",
      "outputs": [
        {
          "internalType": "uint256[]",
          "name": "",
          "type": "uint256[]"
        }
      ],
      "stateMutability": "view",
      "type": "function"
    },
    {
      "inputs": [
        {
          "internalType": "uint256",
          "name": "ticketId",
          "type": "uint256"
        }
      ],
      "name": "buyTicket",
      "outputs": [],
      "stateMutability": "payable",
      "type": "function"
    },
    {
      "inputs": [],
      "name": "fetchEvents",
      "outputs": [
        {
          "components": [
            {
              "internalType": "uint256",
              "name": "eventId",
              "type": "uint256"
            },
            {
              "internalType": "uint256",
              "name": "price",
              "type": "uint256"
            },
            {
              "internalType": "uint256",
              "name": "ticketsIDStart",
              "type": "uint256"
            },
            {
              "internalType": "uint256",
              "name": "ticketsCount",
              "type": "uint256"
            }
          ],
          "internalType": "struct MassEvent.EventItem[]",
          "name": "",
          "type": "tuple[]"
        }
      ],
      "stateMutability": "view",
      "type": "function"
    },
    {
      "inputs": [
        {
          "internalType": "address",
          "name": "user",
          "type": "address"
        }
      ],
      "name": "fetchUserTickets",
      "outputs": [
        {
          "internalType": "uint256[]",
          "name": "",
          "type": "uint256[]"
        }
      ],
      "stateMutability": "view",
      "type": "function"
    },
    {
      "inputs": [
        {
          "internalType": "uint256",
          "name": "eventId",
          "type": "uint256"
        }
      ],
      "name": "getEventTickets",
      "outputs": [
        {
          "internalType": "uint256",
          "name": "",
          "type": "uint256"
        }
      ],
      "stateMutability": "view",
      "type": "function"
    },
    {
      "inputs": [],
      "name": "getEvents",
      "outputs": [
        {
          "internalType": "uint256",
          "name": "",
          "type": "uint256"
        }
      ],
      "stateMutability": "view",
      "type": "function"
    },
    {
      "inputs": [],
      "name": "getListingPrice",
      "outputs": [
        {
          "internalType": "uint256",
          "name": "",
          "type": "uint256"
        }
      ],
      "stateMutability": "view",
      "type": "function"
    },
    {
      "inputs": [],
      "name": "getTotalTickets",
      "outputs": [
        {
          "internalType": "uint256",
          "name": "",
          "type": "uint256"
        }
      ],
      "stateMutability": "view",
      "type": "function"
    },
    {
      "inputs": [
        {
          "internalType": "address",
          "name": "account",
          "type": "address"
        },
        {
          "internalType": "address",
          "name": "operator",
          "type": "address"
        }
      ],
      "name": "isApprovedForAll",
      "outputs": [
        {
          "internalType": "bool",
          "name": "",
          "type": "bool"
        }
      ],
      "stateMutability": "view",
      "type": "function"
    },
    {
      "inputs": [],
      "name": "owner",
      "outputs": [
        {
          "internalType": "address",
          "name": "",
          "type": "address"
        }
      ],
      "stateMutability": "view",
      "type": "function"
    },
    {
      "inputs": [],
      "name": "ownerAddr",
      "outputs": [
        {
          "internalType": "address",
          "name": "",
          "type": "address"
        }
      ],
      "stateMutability": "view",
      "type": "function"
    },
    {
      "inputs": [],
      "name": "renounceOwnership",
      "outputs": [],
      "stateMutability": "nonpayable",
      "type": "function"
    },
    {
      "inputs": [
        {
          "internalType": "address",
          "name": "from",
          "type": "address"
        },
        {
          "internalType": "address",
          "name": "to",
          "type": "address"
        },
        {
          "internalType": "uint256[]",
          "name": "ids",
          "type": "uint256[]"
        },
        {
          "internalType": "uint256[]",
          "name": "amounts",
          "type": "uint256[]"
        },
        {
          "internalType": "bytes",
          "name": "data",
          "type": "bytes"
        }
      ],
      "name": "safeBatchTransferFrom",
      "outputs": [],
      "stateMutability": "nonpayable",
      "type": "function"
    },
    {
      "inputs": [
        {
          "internalType": "address",
          "name": "from",
          "type": "address"
        },
        {
          "internalType": "address",
          "name": "to",
          "type": "address"
        },
        {
          "internalType": "uint256",
          "name": "id",
          "type": "uint256"
        },
        {
          "internalType": "uint256",
          "name": "amount",
          "type": "uint256"
        },
        {
          "internalType": "bytes",
          "name": "data",
          "type": "bytes"
        }
      ],
      "name": "safeTransferFrom",
      "outputs": [],
      "stateMutability": "nonpayable",
      "type": "function"
    },
    {
      "inputs": [
        {
          "internalType": "address",
          "name": "operator",
          "type": "address"
        },
        {
          "internalType": "bool",
          "name": "approved",
          "type": "bool"
        }
      ],
      "name": "setApprovalForAll",
      "outputs": [],
      "stateMutability": "nonpayable",
      "type": "function"
    },
    {
      "inputs": [
        {
          "internalType": "bytes4",
          "name": "interfaceId",
          "type": "bytes4"
        }
      ],
      "name": "supportsInterface",
      "outputs": [
        {
          "internalType": "bool",
          "name": "",
          "type": "bool"
        }
      ],
      "stateMutability": "view",
      "type": "function"
    },
    {
      "inputs": [
        {
          "internalType": "address",
          "name": "newOwner",
          "type": "address"
        }
      ],
      "name": "transferOwnership",
      "outputs": [],
      "stateMutability": "nonpayable",
      "type": "function"
    },
    {
      "inputs": [
        {
          "internalType": "uint256",
          "name": "",
          "type": "uint256"
        }
      ],
      "name": "uri",
      "outputs": [
        {
          "internalType": "string",
          "name": "",
          "type": "string"
        }
      ],
      "stateMutability": "view",
      "type": "function"
    }
  ],
  "bytecode": "0x608060405260006007556658d15e176280006009553480156200002157600080fd5b506040805180820190915260018152600160fd1b6020820152620000458162000069565b50620000513362000082565b600880546001600160a01b03191633179055620001b7565b80516200007e906002906020840190620000d4565b5050565b600380546001600160a01b038381166001600160a01b0319831681179093556040519116919082907f8be0079c531659141344cd1fd0a4f28419497f9722a3daafe3b4186f6b6457e090600090a35050565b828054620000e2906200017a565b90600052602060002090601f01602090048101928262000106576000855562000151565b82601f106200012157805160ff191683800117855562000151565b8280016001018555821562000151579182015b828111156200015157825182559160200191906001019062000134565b506200015f92915062000163565b5090565b5b808211156200015f576000815560010162000164565b600181811c908216806200018f57607f821691505b60208210811415620001b157634e487b7160e01b600052602260045260246000fd5b50919050565b611d0080620001c76000396000f3fe60806040526004361061011e5760003560e01c80638da5cb5b116100a0578063ca261ce111610064578063ca261ce11461031b578063e42643a014610348578063e985e9c51461035b578063f242432a146103a4578063f2fde38b146103c457600080fd5b80638da5cb5b146102675780639c675eaa14610299578063a22cb465146102b9578063a86efd78146102d9578063bcba4347146102f957600080fd5b80632eb2c2d6116100e75780632eb2c2d6146101dd578063404aa8f9146101ff5780634e1273f41461021457806367dd74ca14610241578063715018a61461025257600080fd5b8062fdd58e1461012357806301ffc9a71461015657806306e8337f146101865780630e89341c1461019b57806312e85585146101c8575b600080fd5b34801561012f57600080fd5b5061014361013e3660046113cb565b6103e4565b6040519081526020015b60405180910390f35b34801561016257600080fd5b5061017661017136600461140b565b61047a565b604051901515815260200161014d565b34801561019257600080fd5b50600754610143565b3480156101a757600080fd5b506101bb6101b636600461142f565b6104cc565b60405161014d9190611495565b3480156101d457600080fd5b50600954610143565b3480156101e957600080fd5b506101fd6101f83660046115fe565b610560565b005b34801561020b57600080fd5b506101436105ac565b34801561022057600080fd5b5061023461022f3660046116a8565b6105bc565b60405161014d91906117ae565b6101fd61024f36600461142f565b50565b34801561025e57600080fd5b506101fd6106e6565b34801561027357600080fd5b506003546001600160a01b03165b6040516001600160a01b03909116815260200161014d565b3480156102a557600080fd5b50600854610281906001600160a01b031681565b3480156102c557600080fd5b506101fd6102d43660046117c1565b6106fa565b3480156102e557600080fd5b506102346102f43660046117fd565b610709565b34801561030557600080fd5b5061030e6107bb565b60405161014d9190611818565b34801561032757600080fd5b5061014361033636600461142f565b60009081526004602052604090205490565b61014361035636600461187c565b6108d4565b34801561036757600080fd5b506101766103763660046118de565b6001600160a01b03918216600090815260016020908152604080832093909416825291909152205460ff1690565b3480156103b057600080fd5b506101fd6103bf366004611911565b610a20565b3480156103d057600080fd5b506101fd6103df3660046117fd565b610a65565b60006001600160a01b0383166104545760405162461bcd60e51b815260206004820152602a60248201527f455243313135353a2061646472657373207a65726f206973206e6f742061207660448201526930b634b21037bbb732b960b11b60648201526084015b60405180910390fd5b506000908152602081815260408083206001600160a01b03949094168352929052205490565b60006001600160e01b03198216636cdb3d1360e11b14806104ab57506001600160e01b031982166303a24d0760e21b145b806104c657506301ffc9a760e01b6001600160e01b03198316145b92915050565b6060600280546104db90611976565b80601f016020809104026020016040519081016040528092919081815260200182805461050790611976565b80156105545780601f1061052957610100808354040283529160200191610554565b820191906000526020600020905b81548152906001019060200180831161053757829003601f168201915b50505050509050919050565b6001600160a01b03851633148061057c575061057c8533610376565b6105985760405162461bcd60e51b815260040161044b906119b1565b6105a58585858585610adb565b5050505050565b60006105b7600a5490565b905090565b606081518351146106215760405162461bcd60e51b815260206004820152602960248201527f455243313135353a206163636f756e747320616e6420696473206c656e677468604482015268040dad2e6dac2e8c6d60bb1b606482015260840161044b565b6000835167ffffffffffffffff81111561063d5761063d6114a8565b604051908082528060200260200182016040528015610666578160200160208202803683370190505b50905060005b84518110156106de576106b185828151811061068a5761068a611a00565b60200260200101518583815181106106a4576106a4611a00565b60200260200101516103e4565b8282815181106106c3576106c3611a00565b60209081029190910101526106d781611a2c565b905061066c565b509392505050565b6106ee610cb8565b6106f86000610d12565b565b610705338383610d64565b5050565b6060600060075467ffffffffffffffff811115610728576107286114a8565b604051908082528060200260200182016040528015610751578160200160208202803683370190505b5090506000805b6007548110156107b25761076c85826103e4565b600114156107a0578083838151811061078757610787611a00565b60209081029190910101528161079c81611a2c565b9250505b806107aa81611a2c565b915050610758565b50909392505050565b606060006107c8600a5490565b90506000808267ffffffffffffffff8111156107e6576107e66114a8565b60405190808252806020026020018201604052801561084257816020015b61082f6040518060800160405280600081526020016000815260200160008152602001600081525090565b8152602001906001900390816108045790505b50905060005b838110156106de57600b60008281526020019081526020016000206040518060800160405290816000820154815260200160018201548152602001600282015481526020016003820154815250508284815181106108a8576108a8611a00565b602002602001018190525082806108be90611a2c565b93505080806108cc90611a2c565b915050610848565b60008082116108e257600080fd5b60405180608001604052806108f6600a5490565b8152602001838152602001600754815260200184815250600b600061091a600a5490565b81526020019081526020016000206000820151816000015560208201518160010155604082015181600201556060820151816003015590505060005b838110156109a657600854600754610994916001600160a01b03169061097d908490611a47565b600160405180602001604052806000815250610e45565b8061099e81611a2c565b915050610956565b5082600760008282546109b99190611a47565b90915550829050600660006109cd600a5490565b81526020019081526020016000208190555082600460006109ed600a5490565b8152602081019190915260400160002055610a0784610f59565b610a15600a80546001019055565b600a54949350505050565b6001600160a01b038516331480610a3c5750610a3c8533610376565b610a585760405162461bcd60e51b815260040161044b906119b1565b6105a58585858585610f6c565b610a6d610cb8565b6001600160a01b038116610ad25760405162461bcd60e51b815260206004820152602660248201527f4f776e61626c653a206e6577206f776e657220697320746865207a65726f206160448201526564647265737360d01b606482015260840161044b565b61024f81610d12565b8151835114610b3d5760405162461bcd60e51b815260206004820152602860248201527f455243313135353a2069647320616e6420616d6f756e7473206c656e677468206044820152670dad2e6dac2e8c6d60c31b606482015260840161044b565b6001600160a01b038416610b635760405162461bcd60e51b815260040161044b90611a5f565b3360005b8451811015610c4a576000858281518110610b8457610b84611a00565b602002602001015190506000858381518110610ba257610ba2611a00565b602090810291909101810151600084815280835260408082206001600160a01b038e168352909352919091205490915081811015610bf25760405162461bcd60e51b815260040161044b90611aa4565b6000838152602081815260408083206001600160a01b038e8116855292528083208585039055908b16825281208054849290610c2f908490611a47565b9250508190555050505080610c4390611a2c565b9050610b67565b50846001600160a01b0316866001600160a01b0316826001600160a01b03167f4a39dc06d4c0dbc64b70af90fd698a233a518aa5d07e595d983b8c0526c8f7fb8787604051610c9a929190611aee565b60405180910390a4610cb0818787878787611096565b505050505050565b6003546001600160a01b031633146106f85760405162461bcd60e51b815260206004820181905260248201527f4f776e61626c653a2063616c6c6572206973206e6f7420746865206f776e6572604482015260640161044b565b600380546001600160a01b038381166001600160a01b0319831681179093556040519116919082907f8be0079c531659141344cd1fd0a4f28419497f9722a3daafe3b4186f6b6457e090600090a35050565b816001600160a01b0316836001600160a01b03161415610dd85760405162461bcd60e51b815260206004820152602960248201527f455243313135353a2073657474696e6720617070726f76616c20737461747573604482015268103337b91039b2b63360b91b606482015260840161044b565b6001600160a01b03838116600081815260016020908152604080832094871680845294825291829020805460ff191686151590811790915591519182527f17307eab39ab6107e8899845ad3d59bd9653f200f220920489ca2b5937696c31910160405180910390a3505050565b6001600160a01b038416610ea55760405162461bcd60e51b815260206004820152602160248201527f455243313135353a206d696e7420746f20746865207a65726f206164647265736044820152607360f81b606482015260840161044b565b336000610eb185611201565b90506000610ebe85611201565b90506000868152602081815260408083206001600160a01b038b16845290915281208054879290610ef0908490611a47565b909155505060408051878152602081018790526001600160a01b03808a1692600092918716917fc3d58168c5ae7397731d063d5bbf3d657854427343f4c083240f7aacaa2d0f62910160405180910390a4610f508360008989898961124c565b50505050505050565b8051610705906002906020840190611316565b6001600160a01b038416610f925760405162461bcd60e51b815260040161044b90611a5f565b336000610f9e85611201565b90506000610fab85611201565b90506000868152602081815260408083206001600160a01b038c16845290915290205485811015610fee5760405162461bcd60e51b815260040161044b90611aa4565b6000878152602081815260408083206001600160a01b038d8116855292528083208985039055908a1682528120805488929061102b908490611a47565b909155505060408051888152602081018890526001600160a01b03808b16928c821692918816917fc3d58168c5ae7397731d063d5bbf3d657854427343f4c083240f7aacaa2d0f62910160405180910390a461108b848a8a8a8a8a61124c565b505050505050505050565b6001600160a01b0384163b15610cb05760405163bc197c8160e01b81526001600160a01b0385169063bc197c81906110da9089908990889088908890600401611b1c565b602060405180830381600087803b1580156110f457600080fd5b505af1925050508015611124575060408051601f3d908101601f1916820190925261112191810190611b7a565b60015b6111d157611130611b97565b806308c379a0141561116a5750611145611bb3565b80611150575061116c565b8060405162461bcd60e51b815260040161044b9190611495565b505b60405162461bcd60e51b815260206004820152603460248201527f455243313135353a207472616e7366657220746f206e6f6e20455243313135356044820152732932b1b2b4bb32b91034b6b83632b6b2b73a32b960611b606482015260840161044b565b6001600160e01b0319811663bc197c8160e01b14610f505760405162461bcd60e51b815260040161044b90611c3d565b6040805160018082528183019092526060916000919060208083019080368337019050509050828160008151811061123b5761123b611a00565b602090810291909101015292915050565b6001600160a01b0384163b15610cb05760405163f23a6e6160e01b81526001600160a01b0385169063f23a6e61906112909089908990889088908890600401611c85565b602060405180830381600087803b1580156112aa57600080fd5b505af19250505080156112da575060408051601f3d908101601f191682019092526112d791810190611b7a565b60015b6112e657611130611b97565b6001600160e01b0319811663f23a6e6160e01b14610f505760405162461bcd60e51b815260040161044b90611c3d565b82805461132290611976565b90600052602060002090601f016020900481019282611344576000855561138a565b82601f1061135d57805160ff191683800117855561138a565b8280016001018555821561138a579182015b8281111561138a57825182559160200191906001019061136f565b5061139692915061139a565b5090565b5b80821115611396576000815560010161139b565b80356001600160a01b03811681146113c657600080fd5b919050565b600080604083850312156113de57600080fd5b6113e7836113af565b946020939093013593505050565b6001600160e01b03198116811461024f57600080fd5b60006020828403121561141d57600080fd5b8135611428816113f5565b9392505050565b60006020828403121561144157600080fd5b5035919050565b6000815180845260005b8181101561146e57602081850181015186830182015201611452565b81811115611480576000602083870101525b50601f01601f19169290920160200192915050565b6020815260006114286020830184611448565b634e487b7160e01b600052604160045260246000fd5b601f8201601f1916810167ffffffffffffffff811182821017156114e4576114e46114a8565b6040525050565b600067ffffffffffffffff821115611505576115056114a8565b5060051b60200190565b600082601f83011261152057600080fd5b8135602061152d826114eb565b60405161153a82826114be565b83815260059390931b850182019282810191508684111561155a57600080fd5b8286015b84811015611575578035835291830191830161155e565b509695505050505050565b600067ffffffffffffffff83111561159a5761159a6114a8565b6040516115b1601f8501601f1916602001826114be565b8091508381528484840111156115c657600080fd5b83836020830137600060208583010152509392505050565b600082601f8301126115ef57600080fd5b61142883833560208501611580565b600080600080600060a0868803121561161657600080fd5b61161f866113af565b945061162d602087016113af565b9350604086013567ffffffffffffffff8082111561164a57600080fd5b61165689838a0161150f565b9450606088013591508082111561166c57600080fd5b61167889838a0161150f565b9350608088013591508082111561168e57600080fd5b5061169b888289016115de565b9150509295509295909350565b600080604083850312156116bb57600080fd5b823567ffffffffffffffff808211156116d357600080fd5b818501915085601f8301126116e757600080fd5b813560206116f4826114eb565b60405161170182826114be565b83815260059390931b850182019282810191508984111561172157600080fd5b948201945b8386101561174657611737866113af565b82529482019490820190611726565b9650508601359250508082111561175c57600080fd5b506117698582860161150f565b9150509250929050565b600081518084526020808501945080840160005b838110156117a357815187529582019590820190600101611787565b509495945050505050565b6020815260006114286020830184611773565b600080604083850312156117d457600080fd5b6117dd836113af565b9150602083013580151581146117f257600080fd5b809150509250929050565b60006020828403121561180f57600080fd5b611428826113af565b602080825282518282018190526000919060409081850190868401855b8281101561186f57815180518552868101518786015285810151868601526060908101519085015260809093019290850190600101611835565b5091979650505050505050565b60008060006060848603121561189157600080fd5b833567ffffffffffffffff8111156118a857600080fd5b8401601f810186136118b957600080fd5b6118c886823560208401611580565b9660208601359650604090950135949350505050565b600080604083850312156118f157600080fd5b6118fa836113af565b9150611908602084016113af565b90509250929050565b600080600080600060a0868803121561192957600080fd5b611932866113af565b9450611940602087016113af565b93506040860135925060608601359150608086013567ffffffffffffffff81111561196a57600080fd5b61169b888289016115de565b600181811c9082168061198a57607f821691505b602082108114156119ab57634e487b7160e01b600052602260045260246000fd5b50919050565b6020808252602f908201527f455243313135353a2063616c6c6572206973206e6f7420746f6b656e206f776e60408201526e195c881b9bdc88185c1c1c9bdd9959608a1b606082015260800190565b634e487b7160e01b600052603260045260246000fd5b634e487b7160e01b600052601160045260246000fd5b6000600019821415611a4057611a40611a16565b5060010190565b60008219821115611a5a57611a5a611a16565b500190565b60208082526025908201527f455243313135353a207472616e7366657220746f20746865207a65726f206164604082015264647265737360d81b606082015260800190565b6020808252602a908201527f455243313135353a20696e73756666696369656e742062616c616e636520666f60408201526939103a3930b739b332b960b11b606082015260800190565b604081526000611b016040830185611773565b8281036020840152611b138185611773565b95945050505050565b6001600160a01b0386811682528516602082015260a060408201819052600090611b4890830186611773565b8281036060840152611b5a8186611773565b90508281036080840152611b6e8185611448565b98975050505050505050565b600060208284031215611b8c57600080fd5b8151611428816113f5565b600060033d1115611bb05760046000803e5060005160e01c5b90565b600060443d1015611bc15790565b6040516003193d81016004833e81513d67ffffffffffffffff8160248401118184111715611bf157505050505090565b8285019150815181811115611c095750505050505090565b843d8701016020828501011115611c235750505050505090565b611c32602082860101876114be565b509095945050505050565b60208082526028908201527f455243313135353a204552433131353552656365697665722072656a656374656040820152676420746f6b656e7360c01b606082015260800190565b6001600160a01b03868116825285166020820152604081018490526060810183905260a060808201819052600090611cbf90830184611448565b97965050505050505056fea264697066735822122087beb8a51bd2041729be513637e707636591029a3b6979ee8ecc1dcd6ee3542c64736f6c63430008090033",
  "linkReferences": {},
  "deployedLinkReferences": {}
}